:10019100384482A282A24438384482A292A24639CB
:0801A100183C7EFFFF7E3C18B4
:04011C007F967E004C
:10012000E4FDFCC3ED9FEC9E5015E4FBFA0BBB0015
:0F013000010AEB647B4A70F50DBD00010C80E401
:01013F00229D
:0501B500D2A3C2A42248
:0501BA00C2A3D2A42243
:09015C00E924B8FF1201657F409F
:10016500C2A0C2A18F80D2A200C2A27F017E0002DE
:02017500012067
:0A014000AB08AA09A90A120088FF03
:10014A00D2A0C2A18F80D2A200C2A27F017E0002E9
:02015A00012082
:100177001201B57F3E1201657F3F1201651201BA78
:0A0187007F3E1201657F3F02016513
:1000B5001201B5E4F912015CE4F508E4FF12014A06
:1000C5000508E508C3944040F209B908E81201BAE9
:1000D500E4F912015CE4F508E4FF12014A0508E5BC
:0A00E50008C3944040F209B908E88E
:0100EF0022EE
:100003008B088A09890A1201B57FBB1201657F5CDF
:10001300120165AB08AA09A90A12006FFF12014A6F
:10002300900001120140900002120140AB08AA099E
:10003300A90A900003120146AB08AA09A90A900075
:1000430004120146AB08AA09A90A90000512014649
:10005300AB08AA09A90A900006120146AB08AA092F
:0C006300A90A900007120088FF02014A61
:1000F0001201771200B57BFF7A0179911200031289
:10010000011C7BFF7A01799912000312011C7BFF0D
:0C0110007A0179A112000312011C80DAB0
:030000000201A951
:0C01A900787FE4F6D8FD75810A0200F0B2
:10006F00BB010689828A83E0225002E722BBFE028F
:09007F00E32289828A83E49322C2
:10008800BB010CE58229F582E5833AF583E022502D
:1000980006E92582F8E622BBFE06E92582F8E22277
:0D00A800E58229F582E5833AF583E4932291
:00000001FF
