:1000030000000000000000000000000080C0C0E00D
:10001300F0F8F8F838F8F8F8F8F8F0F0F8F0E0E06D
:10002300E0F0F0E0E0E0F02000C0E0E0E0C08000BD
:1000330000000000000000000000000000000000BD
:10004300000080C0C0F0F0F0F0F0E2C3030303034C
:1000530003070F1F7FFFFFFFFFFFFFFFFFFFFFFFF1
:10006300FF3FFFFFFFFFFF7C3E1F1F0F0F0F0F0F11
:100073000606000000000000000000000000000071
:10008300FEFEFFFFFFFFFFFFFFFFF0FFF0E0E0E0FA
:10009300E0E0F0CCCFFFFFFFFFFFFF838303070701
:1000A300070F0F070301000080808080808080C0DD
:1000B300C0F0F8F8FCFC7C7C70000000000000003D
:1000C300FFFFFFFFFFFFFFFFFFFFFFFFFFFFFFFF3D
:1000D300FFFFFF8783838B1F0F0707030300008046
:1000E30080C0E0F0F8FCFFFF7FFFFFFFFF9F0707E3
:1000F30007030303030100000000000000000000E9
:10010300FFFFFFFFFFFFFFFFFFFFFFFFFFFFFFFFFC
:10011300FFFFFFFFFFFF3F3F1C3C7C4CCEFFFFFF79
:10012300FFFFFFFFFFFFFFFFFFFFFFFFFFFC7C70F1
:10013300606070F0F0F0F0F0E020200000000000BC
:10014300FFFFFFFFFFFFFFFFFFFFFFFFFFFFEFEFDC
:10015300C7E7E3E1F1F0FCFEFEFEFEFEFBF3C3079F
:100163000703010D010F1F1F0F070707C783E2F4E2
:10017300BC6C5898302060418101020200000000ED
:100183000003079FFFFFFFFFFFFFFFFFFFFFFFFFCF
:10019300FFFFFFFFFFFFFFFFFFFFFFFFFFFFFFFF6C
:1001A300FFBE1E0E0C0C0E0F0F0F0F2701030608C8
:1001B30060C08498F0E0C000003123060E0C1100EB
:1001C300C0F0FCFFFFFFFFFFFFFFFFFFFFFFFFFF8D
:1001D300FFFFFFFFFFFFFFFFFFFFFFFBFFFFEB8DB6
:1001E30092010000000000000000000100080A0066
:1001F30008090F0F030103030000000000000000C3
:10020300000000000000000000000000808080C0AB
:10021300C0E0E0E0E0E0E0E0E0E0E0E0C08080C0FB
:10022300C0C08080C0C0C00080808080000000000B
:1002330000000000000000000000000000000000BB
:10024300000080C0E0F0F8FCFCEE060703030307A0
:10025300070F3FFFFFFFFFFFFFFFFFFFFFFFFFFF53
:100263007FFFFFFFFFFFF87C3F3F1F1F1F1C1C1872
:100273001800000000000000000000000000000063
:10028300FEFEFFFFFFFFFFFFFBF3FFE0E0E0E0E028
:10029300E0F0FCFFFFFFFFFFFFF7E3C30307070FD8
:1002A3000C0F0F070301008080000000000080C0D6
:1002B300F0E0F0F8F0F0F0C00000000000000000F3
:1002C300FFFFFFFFFFFFFFFFFFFFFFFFFFFFFFFF3B
:1002D300FFEFC3C1C1C7CF0F070B0100808080C0F0
:1002E300C0F0F8F8FEFEFF7FFFFFFFFF1F1F0F0F99
:1002F3000F0F0F07010001000000000000000000C5
:10030300FFFFFFFFFFFFFFFFFFFFFFFFFFFFFFFFFA
:10031300FFFFFFFF7F3F1F1E1E3E7FFFFFFFFFFF0D
:10032300FFFFFFFFFFFFFFFFFFFFFFFFFF7860609F
:10033300E0E0E0E0E0E0C0000000000000000000BA
:10034300FFFFFFFFFFFFFFFFFFFFFFFFFFEFCFC732
:10035300F3F1F0F8FCFEFFFFFFFFFFFFF1E3C7C37C
:10036300830B0B0D0F1F1F1F0F07070707840818A9
:100373001830306161C183020000000000000000FA
:100383007FFFFFFFFFFFFFFFFFFFFFFFFFFFFFFFFA
:10039300FFFFFFFFFFFFFFFFFFFFFFFFFFFFFFFF6A
:1003A300FFFEFC7C7CFCFEFC3CFE9C07060F2382CC
:1003B300083060C000000101C2040C1838180000A6
:1003C300E0F0FFFFFFFFFFFFFFFFFFFFFFFFFFFF68
:1003D300FFFFFFFFFFFFFFFFFFFFFFFFBF7F3F0F9A
:1003E3000A0600000107030323232F78E0E0F0113E
:1003F3005E7E7A3F1F1E1C180101000000000000F2
:1004030000000000000000000000000000000000E9
:1004130000808080808080C0C0C0C080C0C0800059
:1004230000808080000080000000000000000000C9
:1004330000000000000000000000000000000000B9
:100443000000000000C0E0E0F0F8F81C0C0607070D
:1004530007070F1F7FFFFEFFFFFFFFFFFFFFFFFFEA
:10046300FFFF7FFFFFFFFFFB783E3F3F1F1E1C1870
:100473001000000000000000000000000000000069
:10048300F0F8FCFEFFFFFFFFFFFFEFC0C08080C05E
:10049300E0F0F8FE7EFFFFFFFFFFFFEF07070F0F00
:1004A3001F1F3C3F1F07030000000000000080C027
:1004B300F0E000E0E0E0E0C0000000000000000029
:1004C300FFFFFFFFFFFFFFFFFFFFFFFFFFFFFFFF39
:1004D300FFFFFF7F1F0F0F3F7F3F7F0F0F060000C0
:1004E30000000080C0C0F0F8FCFCFCFCFEFF7F3F76
:1004F3003F3F3F3F1F0707030300000000000000CA
:10050300FFFFFFFFFFFFFFFFFFFFFFFFFFFFFFFFF8
:10051300FFFFFFFFFEFEFEFEF8E0F07078F8FCFC44
:10052300FCFEFFFFFFFFFFFFF7FFFFFFFFE80000F9
:1005330000000000000000000000000000000000B8
:10054300FFFFFFFFFFFFFFFFFFFFFFFFFFFFFFFFB8
:10055300FF7F3F3F1F0F0701010103043E3F7F7FE2
:100563007F5F1F1F7FFFFFFF3F3F3F3F3F07034269
:10057300C6C686870F0F0F1B120000000000000085
:10058300FFFFFFFFFFFFFFFFFFFFFFFFFFFFFFFC7B
:10059300F8F8F0F0E0EEE6E6EEE6E3E0E0E0C0C017
:1005A300C0C0C0C0C0C0C1F0F0F8F81C1C38C10006
:1005B30000008001030306040818303070000000B7
:1005C300E0F1FFFFFFFFFFFFFFFFFFFFFFFFFFFF65
:1005D300FFFFFFFFFFFFFFFFFFFFFFFFFFBF7F7F68
:1005E3002F07030301050F050900006E7860C08023
:1005F300B47870330E3C30000000000000000000AF
:1006030000000000000000000000000000000000E7
:1006130000808080808080C0C0C080808080000097
:100623000080800000008000000000000000000047
:1006330000000000000000000000000000000000B7
:10064300000000000080C0E0F0B0B8181C1E1E1FA0
:100653001F3F3F7FFFF8FFFFFFFFFFFFFFFFFEFF8F
:10066300FFFFFFFFFFFFFFF1F0FE7F7F7F3E3C3088
:100673003020000000000000000000000000000027
:10068300F0F8FCFEFFFFFFFFFFFF87A080000000E4
:10069300000080F079FFFFFFFFFFFF9F0F1F1F1F69
:1006A3003F397D3F1F0F07010000000000000000DD
:1006B30000E000E0E0E0E0C0000000000000000017
:1006C300FFFFFFFFFFFFFFFFFFFFFFFFFFFFFFFF37
:1006D300FFFFFF7E3E1F1F5FFF7F3F1F0C000000D9
:1006E30000000080C0E0F0F8FCFCFCFCFC7C3C3E1D
:1006F3003F3F1F1F1F030303010000000000000012
:10070300FFFFFFFFFFFFFFFFFFFFFFFFFFFFFFFFF6
:10071300FFFFFFFEFCFCFCFCF0C0E0E070F8F8F823
:10072300FCFEFFFFFFFFFFFFF3FFFFFFFCC0000026
:1007330000000000000000000000000000000000B6
:10074300FFFFFFFFFFFFFFFFFFFFFFFFFFFFFFFFB6
:100753007F3F3F1F0F0F070101010303001C1E3FD3
:100763003F1F0F0F0F7FFFFF3F3F3F3F1703034223
:10077300C28787070F0F0F1202020000000000005C
:10078300FFFFFFFFFFFFFFFFFFFFFFFFFFFFFCF880
:10079300F8F8FCFEFEFFFFFFFFFFFFFFF8F0E0802D
:1007A3008080C080808000E0E070701C1820000012
:1007B3000000810103020400081030600000000003
:1007C300C0F1FFFFFFFFFFFFFFFFFFFFFFFFFFFF83
:1007D300FFFFFFFFFFFFFFFFFFFFFFFFFFFFFFFF26
:1007E3000F0F0F07030B0301010060F80000000265
:1007F300387051060E1830000000000000000000A1
:1008030000000000000000000000000000000000E5
:100813000000808080808080808080808080800055
:100823000000808080000080800000000000000045
:1008330000000000000000000000000000000000B5
:10084300000000000080C0E0E0F0F0383C1E1E1EF7
:100853001F1F3F3F7FFFF9FFFFFFFFFFFFFFFFFF6B
:10086300FEFFFFFFFFFFFFFFFFE0F0FF7F7F3F3C47
:100873003030100000000000000000000000000005
:10088300E0F0F8FEFFFFFFFFFFFFFFC7A0800000BF
:1008930000000000E0F8FB7FFFFFFFFFFFFFCF0F2B
:1008A3000F1F1F1C303F3F0F070100000000000017
:1008B300000080E080F0F0F0E08000000000000025
:1008C300FFFFFFFFFFFFFFFFFFFFFFFFFFFFFFFF35
:1008D300FFFFFFFFFFFFFFFF7F3F1F5F7FFF7F1EC6
:1008E3000E00000000000080C0C0F8FCFCFCFCFC13
:1008F3003E3E1F1F0F1F0F010101000000000000FB
:10090300FFFFFFFFFFFFFFFFFFFFFFFFFFFFFFFFF4
:10091300FFFFFFFFFFFFFFFFFCF8FCFCFCF8C0C07C
:10092300C06070F8FCFCFEFFFFFFFFFFF3FBFFFE60
:10093300E40000000080C0C08080000000000000D0
:10094300FFFFFFFFFFFFFFFFFFFFFFFFFFFFFFFFB4
:10095300FFFFFFFFFFFFFFFFFF7F3F1F0F07C1C326
:1009630047081C3E7F3F0F076F2F3F7F3F1F1F1F0F
:100973001F336363E36343C787050101000000007E
:10098300FFFFFFFFFFFFFFFFFFFFFFFFFFFFFFFF74
:10099300FFFFFFFFFFFFFFFFFCFCFCFCFEFFFFFC74
:1009A300FEFCFCE0E0F0E0E040000000000000009E
:1009B300040000008000204000000100020608003F
:1009C300E0F1FFFFFFFFFFFFFFFFFFFFFFFFFFFF61
:1009D300FFFFFFFFFFFFFFFFFFFFFFFFFFFFFFFF24
:1009E3005F7F1F0F010101000104000000000000F0
:1009F30000000000000700000000000000000000ED
:100A030000000000000000000000000000000000E3
:100A13008080C0C0C0C0C0C0C0C0C0C0C0C0C00013
:100A23000080C0C0C0808080800000008080000003
:100A330000000000000000000000000000000000B3
:100A43000000000080C0E0E0F0F8F89C1C1E0F0FCF
:100A53001F1F1F3F7FFFFCFFFFFFFFFFFFFFFFFF86
:100A6300FFFFFFFF7FFFFFFFF1F07C7F3F3F1F1E74
:100A7300181818000000000000000000000000002B
:100A8300F0F8FCFEFFFFFFFFFFFFFFC3C080808085
:100A930080808080F03C3FFFFFFFFFFFFFE7070FF1
:100AA3000F0F0F181F1F0F070100000000000000A9
:100AB3000000E0E0C0F0F0F0F0C000000000000033
:100AC300FFFFFFFFFFFFFFFFFFFFFFFFFFFFFFFF33
:100AD300FFFFFFFFFFFF1F0F070F3F3F1F0F070220
:100AE3000000000000C0E0E0F0FCFEFEFEFEFE3E63
:100AF3001E1F1F1F0F0F0700010000000000000052
:100B0300FFFFFFFFFFFFFFFFFFFFFFFFFFFFFFFFF2
:100B1300FFFFFFFFFFFFFFFEFFFFFF78F0F8B83C8A
:100B2300FCFEFEFFFFFFFFFFFFFFFDFDFFFFFFF2E8
:100B3300F0C0C0C0C0C0C0C0808080000000000002
:100B4300FFFFFFFFFFFFFFFFFFFFFFFFFFFFFFFFB2
:100B5300FF7F7FFFBF9F0F87C3E1F8F8F8F9FFCF4F
:100B63008F1F1F1F1F1F17071F3F7F1F1F0F1F1FD2
:100B7300197071312163C3C38307000000000000B3
:100B83007FFFFFFFFFFFFFFFFFFFFFFFFFFFFFFFF2
:100B9300FFFFFEFFFFFFFFFFFFFFFFFFFFFFFFFF63
:100BA300FFFFFCFCF8F878F0F0F03838180802067C
:100BB3000D0200002060C080002100000C1C180002
:100BC300E0F0FDFFFFFFFFFFFFFFFFFFFFFFFFFF62
:100BD300FFFFFFFFFFFFFFFFFFFFFFDFFFFF3F6F92
:100BE3007F7F0F000001000103000600006368001F
:100BF300400040010E0C0803070400000000000041
:100C030000000000000000000000000000000000E1
:100C130000808080808080808080C0808080800091
:100C230000008080000000000000000000000000C1
:100C330000000000000000000000000000000000B1
:100C4300000000000080C0E0F0F0F0B81C1E0E0FA2
:100C53001F1F1F3F7FFFFDFFFFFFFFFFFFFFFFFE84
:100C6300FFFFFFFFFFFFFFFFF1F07E7F3F3F3E38B7
:100C73003010000000000000000000000000000031
:100C8300F0F8FCFEFFFFFFFFFFFFEFBF8000000057
:100C9300000080C0F87FFFFFFFFFFFFFDF0F0F1F84
:100CA3001F3F393C3F1F0F030100000000000000FD
:100CB3000080F000E0E0E0E0C00000000000000081
:100CC300FFFFFFFFFFFFFFFFFFFFFFFFFFFFFFFF31
:100CD300FFFFFFFFFF3F1F1F5F7F7F3F1F0E0C00C4
:100CE3000000000080C0C0F0F8FCFCF8F8F8FC7CC1
:100CF3007E7F3F3F3F1F030303010000000000000E
:100D0300FFFFFFFFFFFFFFFFFFFFFFFFFFFFFFFFF0
:100D1300FFFFFFFFFFFEFCFEFCFCE0E0E070F8F8E5
:100D2300F8FCFCFEFFFFFFFFFFF7F7FFFFFFEC0000
:100D330000000000000000000000000000000000B0
:100D4300FFFFFFFFFFFFFFFFFFFFFFFFFFFFFFFFB0
:100D5300FFFF7F3F1F1F0F0703010003870C3E7F29
:100D63007F7F1FFFDF7F7FFFFF3F3F3F3F3F070344
:100D73004242C6C7870F0F0F0B020202000000009A
:100D8300FFFFFFFFFFFFFFFFFFFFFFFFFFFFFFFF70
:100D9300FDFCF8F8F8F8F7F3FBFFFFF9F0F0E0C01B
:100DA300C0C0C0C0C0C080E0F07038380C0C180060
:100DB30000002040810101020404081830200000D3
:100DC300E0F1FFFFFFFFFFFFFFFFFFFFFFFFFFFF5D
:100DD300FFFFFFFFFFFFFFFFFFFFFFFFFFFF7F7F20
:100DE3001F2F030301010704010000003E604020A0
:100DF30000063C3C0903060C000000000000000054
:100E030000000000000000000000000000000000DF
:100E13000000008080C0C0808080808080808080CF
:100E230000000000000000000000000000000000BF
:100E330000000000000000000000000000000000AF
:100E430000000000000080C0E0F0F0F8F89C1C0EE9
:100E53000F0F0F0F1F3F7FFFFBFFFFFFFFFFFFFF83
:100E6300FFFAFEFFFFFFFEFEFEFEC6E0FCFCFEFCFB
:100E7300F8E0E04040000000000000000000000037
:100E8300F0F8FCFEFEFFFFFFFFFFFFFFC7CFBEC072
:100E93008080808080C0E0FDFFFFFFFFFFFF1F1FFA
:100EA3003F3F7F7F617D7F3F1F0F070301010000ED
:100EB30000000000000080808000000000000000AF
:100EC300FFFFFFFFFFFFFFFFFFFFFFFFFFFFFFFF2F
:100ED300FFFFFFFFFF7F3E1F1FFFFFFF7F3F18182E
:100EE3000000000000008080E0F0F8F8F8F8F8F85F
:100EF300F878787C7E7F3F0F0F0F0400000000001E
:100F0300FFFFFFFFFFFFFFFFFFFFFFFFFFFFFFFFEE
:100F1300FFFFFFFFFFFEFCFCFCFCC0C0C0E0E0F0F5
:100F2300F0F0F8FCFEFFFFFFFFFFE7FFFFFFFFC04E
:100F3300800000000000000000000000000000002E
:100F4300FFFFFFFFFFFFFFFFFFFFFFFFFFFFFFFFAE
:100F53007F3F1F1F1F8F87878381808387041C1E0A
:100F63003F7F7F1FDF1F7FFFFFFF7F7F7F7F3F0766
:100F73000686848E0E1E1E1E3C2C044000000000BC
:100F83003F7FFFFFFFFFFFFFFFFFFFFFFFFFFFFEAF
:100F9300FEFCFCFCFEFFFFFFFFFFFFFFFCFCF8F085
:100FA300E0E0C0C0C0808080E1F03030301838000D
:100FB300090041810303060408103020600000008B
:100FC300E0F0FFFFFFFFFFFFFFFFFFFFFFFFFFFF5C
:100FD300FFFFFFFFFFFFFFFFFFFFFFFFFF7F5F7FBE
:100FE3000703030301010104010000080800400096
:100FF300020C1830030C1800000000000000000071
:0613D300011801011900E0
:0B13C800EF1FAC0670011E4C70F622F7
:10131A00E4FDFCC3ED9FEC9E5015E4FBFA0BBB0009
:0F132A00010AEB647B4A70F50DBD00010C80E4F5
:011339002291
:10138B00D2A27F047E001213C8C2A27F047E000289
:02139B0013C875
:0513DA00D2A3D2A42201
:0D13AE00BF0105C2A3D2A422D2A3C2A42273
:10135600EFC3944050077518018F1980097518025C
:0B136600C3EF9440F519AF180213AE5E
:10133A00AE05AD07C2A0C2A1AF061213AE8D8012D0
:0C134A00138B7F0C7E001213C80213DA14
:1012EB00C2A2C2A0C2A11213DA7F147E0012131A7B
:1012FB007D017F3F12133A7D027F3F12133A7D012E
:0F130B007FC012133A7D027FC012133A0212BA4A
:10139D00EFD3940740027F07EF44B8FFAD18021357
:0113AD003A05
:0D13BB00121356E5194440FFAD1802133A15
:10137100AE07D2A0C2A1AF181213AE8E8012138B8A
:0A1381007F087E001213C80213DA81
:1012BA00E4FBE4FF1213BBAF0312139DE4FDE4FF4A
:1012CA001213710DBD40F77F401213BBAF03121307
:1012DA009DE4FDE4FF1213710DBD40F70BBB08D26C
:0112EA0022E1
:10122500E50A75F040A42511FFE5F03510FE7C00B8
:10123500EF250CFBEC3EFAE50C2420FDE50BC395F0
:051245000CF516AF0AD4
:08124A008F128A148B15AE050A
:10125200AF061213BBAF1212139DE4F517E517C3C5
:1012620095165016E5152517F582E43514F583E435
:0A12720093F4FF121371051780E3D7
:01127C00224F
:1011C600EFC394084002E4FFEF7F0025E0FEEF2422
:1011D60003F58274003EAF82F50B8F0CE4F50AE549
:1011E6000A75F040A4250CFBE5F0350BFA751620C0
:1011F6007D20AF0A12124AE50A75F040A4250CFFBD
:10120600E5F0350BCF2420FBE43FFA7516207D4030
:0E121600AF0A12124A050AE50AC3940840C145
:0112240022A7
:10100300EFC394084002E4FFEDC394084002E4FDFB
:10101300EF7F0025E0FEEF2403F58274003EAF82EC
:10102300F50E8F0FED7F0025E0FEEF2403F58274AC
:10103300003EAF82F5108F11E4F50AE4F50DF50CCF
:10104300F50BE50A75F040A47C00250BFFEC35F0A9
:10105300FEE5112FF582E5103EF583E493FDE50FE0
:101063002FF582E50E3EF583E4936D600CE50D707C
:1010730012750D01850B0C800AE50D600612122511
:10108300E4F50D050BE50BC3942040B6E50D602197
:10109300E50A75F040A42511FFE5F03510FE7C004C
:1010A300EF250CFBEC3EFAE50C2420FD7420121214
:1010B30043E4F50D750C20750B20E50A75F040A48B
:1010C3007C00250BFFEC35F0FEE5112FF582E510D2
:1010D3003EF583E493FDE50F2FF582E50E3EF583A0
:1010E300E4936D600CE50D7012750D01850B0C809A
:1010F3000AE50D6006121225E4F50D050BE50BC399
:10110300944040B6E50D6022E50A75F040A4251130
:10111300FFE5F03510FE7C00EF250CFBEC3EFAE515
:101123000C2420FDC37440121244050AE50AC3943B
:0611330008500302103E0B
:011139002293
:10127D001212EB1212BAE4F508AF081211C6750975
:10128D0001AD09AF081210038509087F467E0012D3
:10129D00131A0509E509C3940840E6E4FDAF0812E9
:0D12AD001003E4F5087F46FE12131A80D1ED
:0300000002113AB0
:0C113A00787FE4F6D8FD75811902118160
:1011460002127DE493A3F8E493A34003F68001F230
:1011560008DFF48029E493A3F85407240CC8C333AA
:10116600C4540F4420C8834004F456800146F6DF79
:10117600E4800B01020408102040809013D3E47E23
:10118600019360BCA3FF543F30E509541FFEE4936E
:10119600A360010ECF54C025E060A840B8E493A335
:1011A600FAE493A3F8E493A3C8C582C8CAC583CA60
:1011B600F0A3C8C582C8CAC583CADFE9DEE780BE18
:0113D9000013
:00000001FF
