:10028000010601060188018801B801B80188015DF5
:10029000015D014A014A0126012601060188018803
:1002A000015D015D014A014A01260106010601883E
:1002B000018801B801B80188015D015D014A014A68
:0602C000012601260106E3
:1003C90002120000011001020B0000011101020DCF
:0803D9000000010A0001080008
:10040E005389F0438901758CFC758A67D2A9D2AFE6
:03041E00D28C225B
:03000B00020229C5
:10022900C0E0C0D0758CFC758A670513E5137002B0
:100239000512E510701CD3E50C9400E50B94004001
:1002490011E50C150C7002150BE50C450B700375C7
:100259001001E511701CD3E50E9400E50D940040E2
:1002690011E50E150E7002150DE50E450D7003759D
:070279001101D0D0D0E032EA
:1003AB0012040E7E037FE2E4FD1203807E017FCFF9
:0E03BB007D01120380E4F50F7858E6F58122EB
:10034E007458250FF8A681E50A045401F50A7006C3
:10035E00E51064016010E50AB40106E51164016060
:10036E0005E50AB50FE1850A0F7458250FF8E6F575
:02037E008122DA
:1003E200C290E510B4010BB2907DE87C03E4FF12E9
:0703F20003F912034E80EB3A
:1002C6007C007D0312000EAB07AA06E4F9F87F2036
:1002D6007EA17D0712030A8E168F17E4F514F51515
:1002E600C297AF17AE16120421D297AF17AE1612E9
:1002F60004210515E51570020514C39412E514943E
:030306000040DDD7
:0103090022D1
:0F042100EF1FAC0670011E4C6004000080F22239
:1001CF00E5116401704FE508C39423400EE4F50870
:1001DF007DD07C077F011203F9803AE50825E024E2
:1001EF0080F582E43402F583E493FE740193FF12E9
:1001FF0002C6E5082401FFE433FE7C007D071200F0
:10020F0020ED70067DF47C0180047DC87C007F01A9
:0A021F001203F9050812034E80A631
:1003F900EF70078C0B8D0CF51022BF01078C0D8D4A
:050409000EE4F51122D4
:10038000AB07AA06AF02EDC43354E02419F8A60760
:10039000AF03EDC43354E02418F8A607EDC433547A
:0B03A000E02419FF74582DF8A6072276
:03000000020143B7
:0C014300787FE4F6D8FD75815902018A2E
:10000E00EF8DF0A4A8F0CF8CF0A428CE8DF0A42E06
:02001E00FE22C0
:10002000BC000BBE0029EF8DF084FFADF022E4CCC4
:10003000F875F008EF2FFFEE33FEEC33FCEE9DEC8D
:10004000984005FCEE9DFE0FD5F0E9E4CEFD22EDD3
:10005000F8F5F0EE8420D21CFEADF075F008EF2F1D
:10006000FFED33FD4007985006D5F0F222C398FD0E
:050070000FD5F0EA22AB
:10030A00C2D5E830E70FB2D5E4C39BFBE49AFAE41E
:10031A0099F9E498F8EC30E717B2D51203401200C5
:10032A00B1E4C39BFBE49AFAE499F9E498F88003F0
:10033A001200B130D50DE4C39FFFE49EFEE49DFD9B
:04034A00E49CFC2211
:10014F000203ABE493A3F8E493A34003F68001F218
:10015F0008DFF48029E493A3F85407240CC8C333B1
:10016F00C4540F4420C8834004F456800146F6DF80
:10017F00E4800B01020408102040809003C9E47E44
:10018F00019360BCA3FF543F30E509541FFEE49375
:10019F00A360010ECF54C025E060A840B8E493A33C
:1001AF00FAE493A3F8E493A3C8C582C8CAC583CA67
:1001BF00F0A3C8C582C8CAC583CADFE9DEE780BE1F
:0103E100001B
:1000750075F008758200EF2FFFEE33FECD33CDCC42
:1000850033CCC58233C5829BED9AEC99E5829840C5
:100095000CF582EE9BFEED9AFDEC99FC0FD5F0D6A2
:1000A500E4CEFBE4CDFAE4CCF9A88222B800C1B9CC
:1000B5000059BA002DEC8BF084CFCECDFCE5F0CB0A
:1000C500F97818EF2FFFEE33FEED33FDEC33FCEB43
:1000D50033FB10D703994004EB99FB0FD8E5E4F9FE
:1000E500FA227818EF2FFFEE33FEED33FDEC33FCEB
:1000F500C933C910D7059BE99A4007EC9BFCE99ADF
:10010500F90FD8E0E4C9FAE4CCFB2275F010EF2F23
:10011500FFEE33FEED33FDCC33CCC833C810D70723
:100125009BEC9AE899400AED9BFDEC9AFCE899F85E
:0E0135000FD5F0DAE4CDFBE4CCFAE4C8F922F1
:00000001FF
